:100000000C943A030C9481030C9481030C948103A7
:100010000C9481030C9481030C9481030C94810350
:100020000C9481030C9481030C9480280C94542923
:100030000C94AF230C9481030C9481030C948103E2
:100040000C9481030C9481030C9481030C94810320
:100050000C9481030C9406240C9481030C9481036A
:100060000C9481030C9481030C9481030C94810300
:100070000C9481030C9481030C9481030C948103F0
:100080000C9481030C9481030C9481030C948103E0
:100090000C9481030C9481030C9481030C948103D0
:1000A0000C9481030C9481030C94810329003A0081
:1000B0003B003C003D003E003F004000410042004C
:1000C000430044004500460001514C0035001E002D
:1000D0001F0020002100220023002400250026000C
:1000E00027002D002E0001002A004A002B000000EE
:1000F00014001A000800150017001C0018000C005E
:10010000120013002F00300031004B0039000000B6
:1001100004001600070009000A000B000D000E0085
:100120000F0033003400280000004E00E10064009E
:100130001D001B000600190005001100100036000C
:10014000370038000000E50052004D00E000E300F9
:100150000000E2002C0000002C0000002C00000039
:10016000E600E700E400500051004F000052025248
:100170000100010001000100010001000100010077
:100180000100AE00AC00AB00010001000100010065
:100190000100010001000100010001000100010057
:1001A000A800AA00A9000100010001000100000050
:1001B000C35CC45CC65CC75CC85CC95CCA5CCB5C25
:1001C0000100010001000100010001000100000028
:1001D0000100010001000100010001000100010017
:1001E0000100010001000100000001000100010008
:1001F000010001000100BC5CBD5C010001000100C8
:1002000001000100000001000100010001000100E7
:1002100000000100010000000100000001000000DA
:1002200001000100010001000100010029003A0065
:100230003B003C003D003E003F00400041004200CA
:10024000430044004500460001514C0035001E00AB
:100250001F0020002100220023002400250026008A
:1002600027002D002E0001002A004A002B0000006C
:1002700014001A000800150017001C0018000C00DC
:10028000120013002F00300031004B003900000035
:1002900004001600070009000A000B000D000E0004
:1002A0000F0033003400280000004E00E10064001D
:1002B0001D001B000600190005001100100036008B
:1002C000370038000000E50052004D00E000E20079
:1002D0000000E3002C0000002C0000002C000000B7
:1002E000E700E6000100500051004F001E0F05001E
:1002F000047F3F1F643214643214783C1E1E140ABB
:10030000052223252628292A2C2D2F303233353655
:10031000383A3B3D3E4042434547494A4C4E505196
:10032000535557595A5C5E6062646668696B6D6FBD
:1003300071737577797B7D7F81838587898A8C8EC0
:1003400090929496989A9C9E9FA1A3A5A7A8AAACC8
:10035000AEAFB1B3B4B6B8B9BBBCBEBFC1C2C3C502
:10036000C6C7C9CACBCCCDCED0D1D2D2D3D4D5D6A4
:10037000D7D7D8D9D9DADADBDBDBDCDCDCDCDCDDD7
:10038000DDDDDDDCDCDCDCDCDBDBDBDADAD9D9D8BB
:10039000D7D7D6D5D4D3D2D2D1D0CECDCCCBCAC953
:1003A000C7C6C5C3C2C1BFBEBCBBB9B8B6B4B3B182
:1003B000AFAEACAAA8A7A5A3A19F9E9C9A9896941D
:1003C00092908E8C8A89878583817F7D7B797775F2
:1003D00073716F6D6B6968666462605E5C5A5957D1
:1003E000555351504E4C4A4947454342403E3D3B90
:1003F0003A3836353332302F2D2C2A29282625231A
:1004000022FFAA7F55400001010101010101010104
:1004100002020202020202020203030303030303B5
:100420000304040404040404050505050506060682
:100430000606070707070708080808090909090A3F
:100440000A0A0B0B0B0C0C0C0D0D0D0E0E0E0F0FE4
:100450000F10101111111212131314141515161672
:100460001717181819191A1A1B1B1C1D1D1E1E1FE1
:100470002020212222232424252626272829292A30
:100480002B2C2D2D2E2F3031323233343536373858
:10049000393A3B3C3D3E3F40414243444546474854
:1004A000494A4C4D4E4F50515354555658595A5B2A
:1004B0005D5E5F616264656668696B6C6D6F7072CA
:1004C000737577787A7B7D7E8082838587888A8C36
:1004D0008E8F91939596989A9C9EA0A2A3A5A7A96A
:1004E000ABADAFB1B3B5B7BABCBEC0C2C4C6C9CB61
:1004F000CDCFD1D4D6D8DBDDDFE2E4E7E9EBEEF017
:10050000F3F5F8FAFDFF0C034B00420044003700FE
:1005100035000000160371006D006B00620075006D
:1005200069006C00640065007200000004030904A7
:1005300009023B00020100A0FA09040000010301C6
:100540000100092111010001224000070581030873
:10055000000A090401000103000000092111010043
:100560000122B6000705820320000A1201000200E2
:10057000000008424B616002000102000105010910
:1005800002A10185020901A1000509190129081527
:100590000025019508750181020501093009311511
:1005A00081257F95027508810609381581257F957B
:1005B0000175088106050C0A38021581257F950111
:1005C00075088106C0C005010980A10185031901D4
:1005D0002AB700150126B700950175108100C005E6
:1005E0000C0901A101850419012AA002150126A008
:1005F00002950175108100C005010906A10185055C
:10060000050719E029E71500250195087501810204
:100610000507190029EF1500250195F075018102E4
:1006200005081901290595057501910295017503C4
:100630009101C005010906A101050719E029E71587
:100640000025019508750181029501750881010554
:1006500007190029FF150026FF009506750881007F
:100660000508190129059505750191029501750384
:100670009101C00011241FBECFEFDAE0DEBFCDBF75
:1006800004B603FE27C08091890390918A03A0914C
:100690008B03B0918C038730904BA740B04BD1F4C3
:1006A0001092890310928A0310928B0310928C038C
:1006B00014BE84B7877F84BF0FB6F894A895809145
:1006C0006000886180936000109260000FBEE0E0DF
:1006D000F8E3099511E0A0E0B1E0E4E5F9E502C036
:1006E00005900D92A03DB107D9F723E0A0EDB1E050
:1006F00001C01D92A938B207E1F70E94D2130C94F1
:10070000802C0C94000081E0089581E008950C9401
:10071000850308950C9489031F93CF93DF9300D032
:1007200000D00F92CDB7DEB749835A836B833091E7
:10073000D20189819A8131111DC06623B9F022232B
:10074000A9F00E94D809182F682F89819A810E94E8
:10075000850969817A81812F0F900F900F900F90FA
:100760000F90DF91CF911F910C942C100E94B10932
:10077000182FEFCF0E94D80969817A81EDCFFC0153
:10078000262F408151816281738184810C948C0376
:1007900081E00895CF93DF93EC0160E00E94BF03F6
:1007A000BE01DF91CF910C948A030E9454120E94E3
:1007B00060040E94E91F0C9479120C947C12089535
:1007C0000E942E080E94DF032FEF84E39CE021505B
:1007D00080409040E1F700C000000C942A240F9361
:1007E0001F93CF93DF938C0161E00E94BF03EC0164
:1007F000B8010E948703882309F441C0B801CE01E3
:100800000E94551F8823D9F1B801CE010E94912082
:100810008823A9F1B801CE010E94E320882379F151
:10082000B801CE010E940622882349F1B801CE0109
:100830000E94AC1D882319F1F8018281882361F0A0
:10084000CB35FDE5DF0721F170F4C115ECE5DE07DE
:10085000A1F0CF3DDC45C9F0C801DF91CF911F91D8
:100860000F910C948303CC358DE5D807A1F0CD35DD
:10087000DD4591F70E94B50DEFCF0E94E00380E0C7
:10088000DF91CF911F910F9108950E942C0FF7CF08
:100890000E94BE0DE1CF0E94C10DDECF08950C94E1
:1008A0004E0481E00895CF93C82F0E9451048823FD
:1008B00019F0C1FD03C02A9ACF9108952A98FCCF60
:1008C000229A2A9A0895CF93C82F0E944F048C2F02
:1008D000CF910C945304CF93DF93CDB7DEB72B9712
:1008E0000FB6F894DEBF0FBECDBF4F835887698720
:1008F0007A878B8761110E94E40D1E821D8285E03C
:10090000FE013796DE01119601900D928A95E1F76E
:100910008C819D81892B89F449815A816B817C81ED
:100920008D819E810E94E40C2B960FB6F894DEBF59
:100930000FBECDBFDF91CF91089589819A81892320
:100940008F3F51F3CE0101960E94C8038111E4CF7D
:10095000EBCFFC01808191810C941A0ACF93C82FB0
:10096000882309F48BC08238C1F40E94352281FDAE
:1009700085C089E30E947E0D0E94140E2FEF81EE48
:1009800094E0215080409040E1F700C0000089E3EE
:100990000E94850DCF910C94140E8338A1F40E940F
:1009A000352280FD6BC083E50E947E0D0E94140EEF
:1009B0002FEF81EE94E0215080409040E1F700C09D
:1009C000000083E5E5CF8438A1F40E94352282FD42
:1009D00055C087E40E947E0D0E94140E2FEF81EE19
:1009E00094E0215080409040E1F700C0000087E48F
:1009F000CFCF8CEF8C0F813A90F46C2F8091040153
:100A0000909105010E94A922882329F08C2F0E9431
:100A1000850D0E94140E8C2F0E947E0DBBCF80E2AC
:100A20008C0F883048F4C77081E001C0880FCA95E8
:100A3000EAF70E94C70DAECFEBE5EC0FE33040F4D0
:100A4000F0E0E65AFE4F808190E0CF910C9469224D
:100A5000E8E5EC0FE73150F4F0E0EE0FFF1FE45D46
:100A6000FE4F80819181CF910C947F22CD3E30F05A
:100A70008C2F0E946014CF910C943315CF91089560
:100A8000882309F452C0823871F40E94352281FF14
:100A90004CC089E30E947E0D0E94140E89E30E94DF
:100AA000850D0C94140E833859F40E94352280FF72
:100AB0003CC083E50E947E0D0E94140E83E5EFCFBB
:100AC000843859F40E94352282FF2FC087E40E94A7
:100AD0007E0D0E94140E87E4E2CF9CEF980F913AAE
:100AE000F0F290E2980F983050F4877091E001C0D6
:100AF000990F8A95EAF7892F0E94CD0DD2CF9BE5F9
:100B0000980F933020F490E080E00C94692298E5EF
:100B1000980F973120F490E080E00C947F228D3E76
:100B200020F00E94BA140C94331508951F93CF93AC
:100B3000DF93182FEB010E94AE04209731F4812F30
:100B4000DF91CF911F910C9440058FE99FE00197B1
:100B5000F1F700C000002197F0CF70E060E089332A
:100B600011F460E570E00C949605882321F00E9452
:100B7000C70D0C94140E0895882321F00E94CD0D0A
:100B80000C94140E0895BF92CF92DF92EF92FF92D1
:100B90000F931F93CF93DF936C01D62FC72FFC01C8
:100BA0001281058102950F700E949C0DE82E88230A
:100BB000A1F0E12E112389F08C2F807F803429F061
:100BC00080E28D0FE12C883040F082E00E94650EBB
:100BD0000E949C0D91E0E82EE926BC2EB2949FE085
:100BE000B922EB2DF0E0EE57F34D0C946C2B0C2F4B
:100BF0000F70C07F11F00295007F1123A9F0002330
:100C000059F080E28D0F883010F0D11109C0802F8B
:100C10000E94C70D0E94140E8D2F0E94AE0414C0B6
:100C2000802F0E94D70DF6CF8D2F0E944005002304
:100C300059F080E28D0F883010F0D1112CC0802F38
:100C40000E94CD0D0E94140E2B2D2850330B243002
:100C5000310520F40E9435220E946304EE2009F43D
:100C60009EC10E94980D80FD9AC1F60112820E94D9
:100C7000920D0E94E908C6010E94F0070E94920DA1
:100C8000DF91CF911F910F91FF90EF90DF90CF9068
:100C9000BF900C940A09802F0E94DD0DD3CFFC2F4A
:100CA000FF70FF2EC07FC03219F0F29480EFF8225F
:100CB000DD2369F0D13049F1112391F1002351F185
:100CC000F601858180FFA8CF8F70858323C0112313
:100CD00081F0011106C00E94F70D8F290E94B50511
:100CE000B3CF0130C1F70E94F70D8F290E94FD0D8F
:100CF000ABCF011106C00E940A0E8F2D0E94BC05C9
:100D0000A3CF013009F4A0CFF6CF112329F006308C
:100D100008F09ACF8F2DE2CF053008F095CFEDCFB8
:100D2000002359F3D93349F4FFEF27EE33E0F150B4
:100D300020403040E1F700C000008D2F0E944005A8
:100D400083CF8C2F86958695837069F0813009F06A
:100D50007BCF8D2F9C2F9370111102C090E080E00B
:100D60000E947F2271CF8D2F9C2F9370111102C092
:100D700090E080E00E94692267CF8D2F112329F037
:100D80000E9460140E9433155FCF0E94BA14FACFFC
:100D90008C2F837009F041C0111156CF4D2F429511
:100DA00046954770440F440F0D2F0F7010E030E050
:100DB00020E0042E04C0000F111F221F331F0A94CD
:100DC000D2F760E070E0CB01D4FF0FC06FE070E0BD
:100DD00080E090E004C0660F771F881F991F4A9536
:100DE000D2F76095709580959095C695C695C3701D
:100DF000602B712B822B932BC23049F058F4C130F9
:100E000019F00E949B0820CF0E9489081DCF0E94E4
:100E1000AD081ACF0E94870817CF8695112311F0CD
:100E20008C2F8170882309F40FCF4D2F4295469562
:100E30004770440F440F0D2F0F7010E030E020E09A
:100E4000042E04C0000F111F221F331F0A94D2F773
:100E500060E070E0CB01D4FF0FC06FE070E080E095
:100E600090E004C0660F771F881F991F4A95D2F73C
:100E70006095709580959095C695C695C370602BCA
:100E8000712B822B932BC23049F058F4C13019F0EA
:100E90000E946009D9CE0E944E09D6CE0E947209E6
:100EA000D3CE0E94C308D0CECF70112329F08C2F4F
:100EB0000E94E9088D2F12CF8D2F0E94BC058C2F28
:100EC0000E940A09C1CED23F89F160F4D03FC9F037
:100ED000D13F29F1112309F442C001119DCE8C2F7D
:100EE0008F7121C0D33F39F1D43FA1F7112369F1AC
:100EF000CF718C2F0E94E90863E08C2F0E944A0E6C
:100F0000A3CE112341F0053008F09ECE8C2F8F71B7
:100F10000E942D0999CE063008F096CEF7CF8C2F7F
:100F20008F71112369F20E94E9088ECE8C2F8F7188
:100F30001123C9F3C5CF112329F08C2F8F710E9483
:100F4000D40882CE0E94CF087FCE81E00E94650E39
:100F5000023008F479CE82E00E94650E75CE00233F
:100F600059F0D93309F0E9CE8FEF97EEE3E08150E5
:100F70009040E040E1F7DFCE8C2F8F71A1CF4C2F56
:100F80004F706D2FC6010E9428100E94480A5CCE47
:100F90004C2F4F706D2FC6010E942B1055CEDF9144
:100FA000CF911F910F91FF90EF90DF90CF90BF9066
:100FB00008950F931F93CF93DF93EC01688179819C
:100FC0008A810E94240A8C010E9484090E9486085A
:100FD000B801CE01DF91CF911F910F910C94C30501
:100FE000CF93DF93EC018B819C81892B29F0888141
:100FF000998189238F3F59F4DF91CF910895CE01D4
:101000000E94D907CE01DF91CF910C94CA03CE0183
:101010000E94EF038111F3CF0E949C0D882361F39E
:101020008A81882349F382E0DF91CF910C94650E89
:1010300090E080E00E94692290E080E00E947F22A0
:101040000E94E40D0E94F40D0E94140E0E945A1694
:101050000C9433150E948C0D0C9418080E94D40D2A
:101060000C942A08E92FE295EF70E250EE3070F40C
:10107000F0E0EE56F34D0C946C2B803F19F020F409
:10108000883E20F481E00895843FE1F380E00895F4
:10109000883EC0F3813FD1F7F5CF93FB882780F9D5
:1010A0000895FC01808191810E941A0A0C943208F3
:1010B000CF93DF9300D000D00F92CDB7DEB70F9063
:1010C0000F900F900F900F90DF91CF910895CF93D5
:1010D000DF9300D000D000D0CDB7DEB726960FB694
:1010E000F894DEBF0FBECDBFDF91CF910895089574
:1010F0000C9477080E94780860931302709314028E
:1011000080931502909316020C94180808950C947D
:101110007A080F931F9300911302109114022091EB
:10112000150230911602602B712B822B932B1F918D
:101130000F910C947A080F931F9300911302109152
:10114000140220911502309116026023712382232C
:1011500093231F910F910C947A080F931F93009182
:10116000130210911402209115023091160260278B
:101170007127822793271F910F910C947A080C9462
:1011800077080C94BF080E94C10860930F02709307
:10119000100280931102909312020C94180860E0E0
:1011A00070E0CB010C94C3080F931F9341E050E013
:1011B00060E070E08A019B0104C0000F111F221F34
:1011C000331F8A95D2F7C901B8011F910F910C9472
:1011D000C3080F931F9341E050E060E070E004C04B
:1011E000440F551F661F771F8A95D2F780910F0213
:1011F00090911002A0911102B09112028A019B01FC
:10120000082B192B2A2B3B2BC901B8011F910F91D9
:101210000C94C3080F931F9341E050E060E070E02E
:1012200004C0440F551F661F771F8A95D2F7CB0164
:10123000BA01609570958095909500910F0210917C
:101240001002209111023091120260237123822337
:1012500093231F910F910C94C3080F931F9341E0A8
:1012600050E060E070E004C0440F551F661F771F18
:101270008A95D2F780910F0290911002A0911102ED
:10128000B09112028A019B01082719272A273B27C0
:10129000C901B8011F910F910C94C3080F931F93BC
:1012A00000910F0210911002209111023091120250
:1012B000602B712B822B932B1F910F910C94C308E1
:1012C0000F931F9300910F021091100220911102B1
:1012D0003091120260237123822393231F910F9177
:1012E0000C94C3080F931F9300910F0210911002EA
:1012F00020911102309112026027712782279327D3
:101300001F910F910C94C30808959295907F890FB7
:10131000982F977041E001C0440F9A95EAF786959F
:101320008695869595E0899FF0011124ED52FE4F38
:1013300030E020E070E05191DF011197CB01022EE7
:1013400002C0969587950A94E2F78170819585276A
:10135000842385278C932F5F3F4F2530310559F724
:1013600008959295907F890F982F9770869586950E
:10137000869525E0829FF0011124ED52FE4F50E04A
:1013800040E080E0219130E0092E02C0369527959B
:101390000A94E2F721703327042E01C0220F0A9429
:1013A000EAF7822B4F5F5F4F4530510559F708959B
:1013B000BF92CF92DF92EF92FF920F931F93CF9342
:1013C000DF938C01C0900F02D0901002E0901102C8
:1013D000F09012028091130290911402A0911502D4
:1013E000B0911602C82AD92AEA2AFB2ACFE1D0E016
:1013F000BC2ED701C6010C2E04C0B695A7959795B3
:1014000087950A94D2F780FD0EC0219788F7B12CFA
:101410008B2DDF91CF911F910F91FF90EF90DF9077
:10142000CF90BF900895B8018C2F0E945C11019756
:1014300061F3EECFCF93DF93EC010E94D809BE0198
:10144000DF91CF910C945C111F93CF93DF93EB014D
:101450009091D201992331F0CB01DF91CF911F916F
:101460000C941A0A882379F0CB010E94D809182F0E
:10147000682FCE010E948509BE01812FDF91CF9197
:101480001F910C945C11CB010E94B109182FF4CF6D
:10149000EF92FF920F931F93CF93DF938C01892BD1
:1014A00081F0F12CEE24E394E8012196F801849177
:1014B000843770F4843008F05FC08130B1F082303E
:1014C000A1F1DF91CF911F910F91FF90EF900895BF
:1014D000853709F44CC008F43DC09CE7980F90375D
:1014E00080F78F770E94400549C00E5F1F4FFE01B5
:1014F000849190E2980F983060F48770FE2D01C0BF
:10150000FF0F8A95EAF78F2F0E94E70D0E94140EB5
:1015100002C00E94AE048F2D815030F2EFE9FFE04F
:101520003197F1F700C00000F7CF0E5F1F4FFE01AB
:10153000849190E2980F983050F48770FE2D01C08E
:10154000FF0F8A95EAF78F2F0E94ED0DDFCF0E94E3
:101550004005E1CF0E5F1F4FFE01C491C150D8F28C
:101560008FE99FE00197F1F700C00000F7CF0E5F11
:101570001F4FFE01F490CFCF0E94AE048E01CBCF5F
:101580001F93CF93DF93C091170216E0809118024A
:101590008C1304C0DF91CF911F910895D0E01C9F60
:1015A000F0011D9FF00D1124E75EFD4F4081518138
:1015B00062817381848195810E9467082196C7703A
:1015C000E5CF4091490250914A0260914B027091DF
:1015D0004C0280914D0290914E020C9467081F932B
:1015E000CF93DF9380914E02807FA9F480914B02CC
:1015F000882389F080911702C091180260914902F6
:1016000070914A02A0914C02B0914D02D62FD7237F
:1016100016E0C81304C0DF91CF911F91089590E0A8
:10162000109711F0DF3F19F401968770F2CF189FE1
:101630009001199F300D1124F901E75EFD4F4181A2
:101640004713F2CF40814613EFCF42814111ECCFD7
:10165000438154814A1B5B0B483C510528F780911C
:101660004E028F70806180934E02F901E25EFD4F61
:1016700080818F708061808389E492E00E94F0070E
:10168000DF91CF911F910C94C00AAF92BF92CF927D
:10169000DF92EF92FF920F931F93CF93DF93CDB71B
:1016A000DEB761970FB6F894DEBF0FBECDBF8C01D9
:1016B00085E0F801DE011D9601900D928A95E1F713
:1016C000F801E28089E4C82E82E0D82E60914C02B5
:1016D00070914D026115710509F45AC1909149024A
:1016E00020914A02892F82238F3F09F451C1408102
:1016F0005181A380B480F0904B02F501E61BF70BFB
:10170000FF2009F4F6C080914E02382F307FE83C6C
:10171000F10508F0AFC0311179C0FE2C251323C0AC
:10172000941321C0E1101FC08F70806180934E021E
:101730000E94E10AC6010E94F00780914E02F80162
:1017400085838F2D61960FB6F894DEBF0FBECDBF97
:10175000DF91CF911F910F91FF90EF90DF90CF908D
:10176000BF90AF900895AB2829F0842F85238F3F39
:1017700009F027C180E0F82FF170DF2E80FF3CC018
:10178000809117022091180236E0821315C04D8710
:101790005E878D859E850E941A0A292F22952F70BB
:1017A0002230F0F0243018F59F70F1F0F8019581A7
:1017B000907FD1F4D12C1EC090E0389FF001399F6A
:1017C000F00D1124E75EFD4F6181651306C0608155
:1017D000641303C06281E6120FC001968770D5CFF3
:1017E0009F7011F0882331F3805E883018F3C801B0
:1017F0000E94F007FD2CA5CFEE2009F4A2CF809126
:101800004E02816080934E02F12C9BCF251306C0BF
:10181000941304C0F801EE2009F487C0C8010E94A7
:101820005108882319F1EE2009F180914E0280328F
:1018300070F02091490230914A0238872F8319862F
:10184000BB86AA868C87CE0107960E94F00786E0A9
:10185000F801A9E4B2E001900D928A95E1F70E94A7
:10186000EF0A0E94E10AFF24F3946BCFC8010E94A3
:10187000F007F9CF311113C07A2DB98AA88A6E2DDD
:1018800089890E94580889E492E00E94F00786E066
:10189000F60111928A95E9F70E94E10AB5CF251366
:1018A0000FC094130DC0E1100BC0F8018583C8016F
:1018B0000E94F00786E0F60111928A95E9F741CF80
:1018C000C8010E945108882389F2EE2079F28091A4
:1018D0004E02803208F4BBCF2091490230914A0277
:1018E0003A8329831B82BD82AC828E83CE0101960E
:1018F000ACCFE83CF10508F03EC0FE2CEE2009F428
:10190000B5CF25132AC0941328C080914E0280FDC4
:101910001BC0982F907FC1F0F8018583903F31F074
:10192000982F907F905F8F70892B8583C8010E94CC
:10193000F00786E0F801A9E4B2E001900D928A95E3
:10194000E1F70E94E10AFDCE86E0F801A9E4B2E0E9
:1019500001900D928A95E1F7F4CEC8010E945108DA
:10196000811175CF80914E02816080934E02C80133
:101970000E94F007E6CE7A2DB98AA88A6E2D898951
:101980000E94580886E0F60111928A95E9F7D9CFAE
:10199000EE2009F46BCFC8010E945108F82E88236D
:1019A00009F464CF86E0F801A9E4B2E001900D9259
:1019B0008A95E1F789E492E00E94A9040E94EF0A67
:1019C000C0CF81E08E25D7CE1F93CF93DF93CDB7C5
:1019D000DEB72C970FB6F894DEBF0FBECDBF4F8396
:1019E000588769877A878B879C87CE0107960E94E4
:1019F000450B882369F08A859B85892B39F04F81B7
:101A00005885842F85238F3F09F071C016E05FC091
:101A100086E0FE013796DE01119601900D928A95BF
:101A2000E1F78A859B85892B89F38F8198858923A6
:101A30008F3F61F32091180230E0C9010196877051
:101A40009927409117024817190671F40E942E0831
:101A5000109218021092170286E0E9E4F2E0DF012A
:101A60001D928A95E9F7D2CF96E0929FD001939F7D
:101A7000B00D1124A75EBD4FFE01319601900D926D
:101A80009A95E1F7809318020E94C00ABFCF819F08
:101A9000C0011124875E9D4F0E94450B8823E9F009
:101AA000E09117021E9FF0011124E75EFD4F408177
:101AB000518162817381848195810E946708809140
:101AC000170290E001968770992780931702809102
:101AD0001702909118028913DACF2C960FB6F8945A
:101AE000DEBF0FBECDBFDF91CF911F9108956985F5
:101AF0007A858B859C850E94670888CF682F8091A6
:101B00000401909105010C942923682F8091040110
:101B1000909105010C94342380910401909105016A
:101B20000C943F2380914F02859585958595089566
:101B300080914F028770089590914F02977081E0D5
:101B400009F480E008959091290392FB222720F95F
:101B5000281751F080FB92F9909329038091280374
:101B6000909129030C94A80E08958091290382FB7B
:101B7000882780F991E089270C94A30D81E00C94CB
:101B8000A30D80E00C94A30D8091730208959091B1
:101B90007302892B8093730208958095909173024C
:101BA0009823909373020895109273020895909170
:101BB0007202892B8093720208958095909172022F
:101BC0009823909372020895109272020895909152
:101BD0007102892B80937102089580959091710212
:101BE0009823909371020895109271020895809144
:101BF0005002089508950C94FA0D9091290392FDD6
:101C000008C090915002981721F0809350020C94D4
:101C1000FB0D089580915002882329F01092500204
:101C200080E00C94FB0D0895E0910401F091050112
:101C3000809173028083E0910401F091050180811D
:101C400090917202892B8083E0910401F09105014B
:101C5000808190917102892B808390915002992309
:101C600081F0E0910401F09105018081892B80834E
:101C700080910401909105010E94952281110E949A
:101C80000A0E80910401909105010C94412208955F
:101C90000C94470E9091290392FD10C098E0899F03
:101CA00090011124622B60934F020E94E9088091F9
:101CB0004F028595859585950C94480E0C94E908FE
:101CC00010924F0280E00C94480E90914F02809544
:101CD000892380934F02282F277039F4282F082E4C
:101CE000000C330B9217130621F49091290392FFF5
:101CF00007C08595859585950E940A090C94600E0C
:101D000008956FEF7FEF90E080E00C944B2C90E013
:101D100080E00E94272C21E0893E9E4F09F020E0C0
:101D2000822F089582E090E00C94192C83E090E0DB
:101D30000C94192CCF9384E090E00E94192CC82FAA
:101D400082E290E00E94192C982F8C2FCF91089559
:101D5000CF93C92F682F84E090E00E942D2C6C2F28
:101D600082E290E0CF910C942D2CAB01BC018FE06E
:101D700090E00C943F2CAB01BC0183E190E00C940B
:101D80003F2C60E070E0CB010C94BB0E60E070E093
:101D9000CB010E94B50E0C94C10E69EE7EEF90E06F
:101DA00080E00E944B2C60E082E090E00E942D2CAD
:101DB00060E083E090E00E942D2C109213021092BC
:101DC0001402109215021092160260E084E090E076
:101DD0000E942D2C60E082E290E00E942D2C60E0B9
:101DE00085E090E00E942D2C60E086E090E00E946B
:101DF0002D2C6FEF87E090E00E942D2C40E050E00A
:101E0000BA0188E090E00E943F2C60E08DE090E015
:101E10000E942D2C40E050E0BA0188E190E00E9441
:101E20003F2C60E087E190E00E942D2C40E050E0E4
:101E3000BA018CE190E00E943F2C70E060E080E20B
:101E400090E00E944B2C40E050E0BA0188E190E025
:101E50000E943F2C0C94C60E0C94CD0E682F8EE081
:101E600090E00C942D2C0E94EB23609385027093DC
:101E70008602809387029093880260938102709318
:101E800082028093830290938402089585B78068CC
:101E900085BF85B7806885BF0895089508950C941F
:101EA0004D0F08950C94510F0E94460F8AE392E162
:101EB0000E944E240E944E0F0C944F0F81E0089513
:101EC0000C945E0F089508950E94620F0C94630FA6
:101ED0000E94D6230E943A130E948A1E0E94AA1CC6
:101EE0000C94520F8F929F92AF92BF92CF92DF923B
:101EF000EF92FF920F931F93CF93DF93CDB7DEB78F
:101F00002A970FB6F894DEBF0FBECDBF0E944D13C7
:101F100081110E94330F55E7852E52E0952E10E077
:101F200000E0A02E802F0E947E126C01F401E1904F
:101F3000F1904F01E816F90609F460C0809189021A
:101F400081FD0E948712C7018C259D25B12CEE24AE
:101F5000E394F12C9C012E213F21232B09F448C04E
:101F60000E94600F8823A9F0BE82AF82CE20DF20BE
:101F700081E0CD2809F480E088870E94DF2381601A
:101F8000782F9A8789874E815F8168858A850E942C
:101F90006B04000F111FF801EB58FD4F80819181F8
:101FA000E826F926F182E0820E94EE1C0E94E81FDA
:101FB0000E944E150E943522909174028917A9F152
:101FC0000E943522809374022A960FB6F894DEBFE1
:101FD0000FBECDBFDF91CF911F910F91FF90EF907A
:101FE000DF90CF90BF90AF909F908F900C94630440
:101FF000B394EE0CFF1CF0E1BF12ACCF0F5F1F4F8C
:102000000630110509F08DCF8FEF89838A831B82FB
:102010000E94DF238160782F9D838C8349815A81C0
:102020006B818D810E946B04BFCF2A960FB6F89406
:10203000DEBF0FBECDBFDF91CF911F910F91FF90FB
:10204000EF90DF90CF90BF90AF909F908F900895CA
:1020500090E080E008950895E72FF0E096E0899FF2
:10206000E00DF11D112484E0EE0FFF1F8A95E1F7CA
:10207000E60FF11DEE0FFF1FE455FF4F8591949180
:102080000895FC01EE0FFF1FE451FD4F85919491DF
:102090000895CF93DF930E946011EC01811520E534
:1020A000920708F042C0811530E4930708F0BDC0E4
:1020B000883E910528F5803E910508F09DC0883A3C
:1020C000910588F4853A910508F08FC0813091051B
:1020D00009F492C0009709F48FC0049708F08CC0EF
:1020E000D0E0C0E089C08F3B910508F489C0805CD6
:1020F0009109C03CD105A0F30E944110EC017CC0C5
:102100008115904250F4C11581E0D80708F074C0E1
:10211000CD3ED10528F3D0656FC0C11590E3D90736
:1021200008F079C0CE019F70E7CF811525E59207B1
:1021300058F5811534E5930708F0A6C0811542E5EE
:10214000940750F4C11581E5D80708F471C0DC2F5D
:10215000CC27C16FD06A50C0982F969596959E0156
:1021600023703327C115D34508F07FC0C1E0D0E00C
:1021700002C0CC0FDD1F2A95E2F720E2929FC0013A
:102180001124C82BD92B6FC0C11589E5D807A8F435
:10219000C11598E5D90708F07CC0C11526E5D2071E
:1021A00008F09ECF8C2F0E94F711C82FD0E0DC2FB3
:1021B000CC27CC27DF71D0621FC0C1153AE5D30709
:1021C00008F46CC0CE0190568115904208F088CF7B
:1021D0008D2F8F710E94F71190E0982F8827882704
:1021E0009F719C012C2BE901E6CFC55AD0E0C55761
:1021F000DE4FC881D0E0D064CE01DF91CF91089549
:10220000C85AD0E0CC0FDD1FC35ADE4F0990D881E9
:10221000C02DD464F1CFCE019927D3FF03C0EC01C8
:10222000D86CEACFEC01D06CE7CFDF70D06AE4CF96
:10223000CE01E4E096958795EA95E1F783702C2F1F
:1022400026952695237090E2299F90011124382B22
:102250008C2F8370C1E0D0E002C0CC0FDD1F8A95C7
:10226000E2F7C22BD32BDC68C7CFC1E0D0E002C0BD
:10227000CC0FDD1F2A95E2F730E2939FC0011124B5
:10228000C82BD92BDA68B8CFD82FCC27C46FD06A27
:10229000B3CFDC2FCC27C06FD06AAECF8C2F8F701E
:1022A0000E94F71134E0D695C7953A95E1F7CF70C3
:1022B0009C2FEC01D069A0CF0E942C100C944910E7
:1022C00082389105B1F1B0F48133910509F475C0FC
:1022D00048F48932910509F469C08A32910509F4FC
:1022E00073C008958533910509F459C08933910568
:1022F00001F10895833E9105A9F138F4803E9105DE
:10230000F9F0823E910549F10895863E9105A9F1C3
:10231000873E9105C9F1843E910519F52091290365
:1023200021FF1FC08091280384FD14C087EE90E038
:102330000895209128032370A1F080EE90E0089585
:102340002091280320FD47C03091290330FF09C0A8
:1023500024FF44C090E080E004C02091280322FDC7
:10236000F7CF08952091280322FD3BC03091290327
:1023700030FDE3CF24FFF5CFEDCF2091280323FFDD
:10238000F0CF24FDE7CFD2CF2091280323FD2CC02E
:102390003091290331FFEECF84EE90E00895209133
:1023A000280325FFDECF89E290E0089520912803DD
:1023B00025FFD7CF85E390E008952091280326FFDD
:1023C000D0CF8AE290E008952091280326FFC9CF5C
:1023D00081E390E0089589E390E0089583EE90E032
:1023E000089582EE90E0089586EE90E00895909131
:1023F000280392FF06C0282F28712830F9F4877F20
:10240000846093FF06C0282F28712831F1F4877E5D
:1024100084612091290320FF06C0382F387138309D
:10242000D9F4877F816021FF06C0282F28712831C9
:10243000D1F4877E816194FD877E0895282F2471D1
:102440002430F9F68B7F8860DCCF282F247124316B
:1024500001F78B7E8861DDCF382F3171313019F76C
:102460008E7F8860E0CF282F2171213121F78E7E69
:102470008861E1CF80E008950C94810E0E944D1395
:102480008FE39CE90197F1F700C000000E944D1313
:1024900080E00E947E1280FF04C00E943C120C94D7
:1024A0002A2408950C943E120E94870E811102C0C6
:1024B0000E942C0F0E94920E809389020E949A0E15
:1024C00090932903809328030E9452120E94960E33
:1024D000682F70E090E080E00E94870860910F0212
:1024E0007091100280911102909112020C94C10817
:1024F00008950C94781208950C947B12E82FF0E064
:10250000EE0FFF1FEA5CFC4F8081918108950895D2
:1025100080EA8A95F1F7089500C008950C94881216
:10252000F894E82FE295EF70F0E031A1282F2F709A
:1025300081E090E001C0880F2A95EAF7982F9095E6
:10254000932391A392A1892B82A378940895CF938A
:10255000DF93CEE9D1E089918F3F11F00E94901274
:1025600081E0C43AD807B9F7CEE8D1E089918F3F2E
:1025700011F00E94901281E0CE39D807B9F7DF91AF
:10258000CF910895AF92BF92CF92DF92EF92FF92D8
:102590000F931F93CF93DF938C01B62EC62FD0E0FD
:1025A000CE0182569E4F7C01FC0120812F3F09F411
:1025B00053C0F894E22FE295EF70F0E031A12F7054
:1025C00081E090E001C0880F2A95EAF7932F982BBD
:1025D00091A392A18095892382A378940E948C1262
:1025E000EEE8F1E030E020E0D12CC12C41E050E0F9
:1025F00081918F3FE1F1A82FA295AF70B0E0909646
:102600006C9170E08F7002C0759567958A95E2F7BE
:1026100060FD2DC0CA01022E02C0880F991F0A94C6
:10262000E2F7C82AD92A2F5F3F4F2031310501F741
:10263000F70180818F3F11F00E94901261E0C11478
:10264000D10409F460E08B2D0E948E12CC0FDD1FA7
:10265000C00FD11FD982C882DF91CF911F910F91F6
:10266000FF90EF90DF90CF90BF90AF90089590E0F3
:1026700080E0D7CF0E94A712EAE2F3E0A6E3B3E03E
:10268000119211921D921D9283E0E633F807C1F773
:1026900086E00E9498130C94D503FF920F931F932A
:1026A000CF93DF93CDB7DEB72C970FB6F894DEBF8C
:1026B0000FBECDBF8E010F5F1F4F8CE0F80111924E
:1026C0008A95E9F7F12C6F2DC8010E94C212F3948C
:1026D000F6E0FF12F8CF4CE050E0B8018AE293E058
:1026E0000E940C2CFF24F394009709F4F12C892B01
:1026F00041F08CE0F801AAE2B3E001900D928A95D6
:10270000E1F72F2D46E066E373E08AE293E00E9452
:1027100099130E94DD038F2D2C960FB6F894DEBF1F
:102720000FBECDBFDF91CF911F910F91FF90089504
:102730000895FF920F931F93CF93DF93F82E092FE5
:10274000162FD72FC42F222349F081E080938C02CB
:102750000E94DF2390938B0280938A0280918C02E7
:102760008823A1F080918A0290918B020E94F72326
:10277000059760F0EF2DF02FA12FBD2F90E080E0A6
:10278000D0E08C179D0744F010928C02DF91CF911E
:102790001F910F91FF900895219131912D933D93B9
:1027A0000196EFCF0E9451230E94BF250E94D82599
:1027B0000E94EA250E94640FFBCF8091930280FF64
:1027C00012C060910B0185E0689FB00111247595DE
:1027D00067957595679560387105A8F56115710560
:1027E000A1F1862F089581FF09C060910B0185E05A
:1027F000689FB001112475956795EDCF60910B012D
:1028000082FD0AC0809192028823D1F090910A0142
:1028100060910B01891728F085E0689FB0011124B1
:10282000DACF869FB001112485E0869F9001879FB3
:10283000300D1124692F70E0C9010E94362BCBCFD7
:1028400065E070E0CECF8FE7089581E00895809134
:10285000930280FF0CC06091070170E07595679549
:10286000759567956115710549F1862F089581FF6A
:1028700006C06091070170E075956795F3CF609190
:10288000070182FD0BC0909191029923A1F0609104
:10289000060180910701961738F0682F70E06038C4
:1028A000710500F38FE70895899FC001112470E03E
:1028B0000E94362BF4CF61E070E0D7CF81E008951D
:1028C0008D3E31F40E94DD13819580939702089527
:1028D0008E3E19F40E94DD13F8CF8F3E31F40E9432
:1028E000DD138195809396020895803F19F40E942C
:1028F000DD13F8CF893F29F40E94271480939802B2
:1029000008958A3F21F40E9427148195F7CF8B3FC9
:1029100031F40E94271481958093990208958C3F89
:1029200019F40E942714F8CF9FE0980F983070F4A4
:10293000815F990B21E030E001C0220F8A95EAF710
:1029400080919502822B8093950208958D3F31F4FA
:102950008091930281608093930208958E3F21F4C9
:10296000809193028260F7CF8F3FB9F780919302F5
:102970008460F1CF409196028D3E59F48091970288
:1029800087FF0DC01092970241110BC01092920266
:1029900008C08E3E81F48091970218169CF3442360
:1029A00081F08091980290919902892B09F05AC088
:1029B0001092910208958F3E49F447FFF0CF109294
:1029C0009602809197028111ECCFE0CF803F19F4FD
:1029D0001416ACF3E4CF90919802893F29F41916AC
:1029E000F4F610929802DBCF8A3F19F497FFD7CF05
:1029F000F8CF909199028B3F29F497FFD0CF109296
:102A00009902CDCF8C3F19F41916CCF3C8CF9FE0B3
:102A1000980F983090F4815F990B21E030E0B90174
:102A200002C0660F771F8A95E2F7CB0180959091DF
:102A30009502892380939502B2CF8D3F31F4809126
:102A400093028E7F80939302AACF8E3F21F48091D0
:102A500093028D7FF7CF8F3F09F0A1CF8091930232
:102A60008B7FF0CF08950E94DF239C019091960206
:102A700080919702982B21F03093900220938F023F
:102A80009091980280919902982B21F030938E02B8
:102A900020938D0284E992E00C945B22EF92FF92E6
:102AA0000F931F93CF93DF9300D000D000D0CDB70A
:102AB000DEB786E0E4E9F2E0DE01119601900D92C6
:102AC0008A95E1F7E0909602F090970200919802C3
:102AD0001091990210929602109297021092980209
:102AE000109299028E2D8F2991F080918F029091F2
:102AF00090020E94F723AC0190919202992309F46D
:102B00003FC080910C018417150608F447C0802F40
:102B1000812B91F080918D0290918E020E94F7237B
:102B2000AC0190919102992309F477C0809108013A
:102B30008417150608F47FC0809196029091970241
:102B4000892B90919802892B90919902892B11F0F1
:102B50000E94331586E0FE013196A4E9B2E00190AF
:102B60000D928A95E1F726960FB6F894DEBF0FBE58
:102B7000CDBFDF91CF911F910F91FF90EF900895FE
:102B800020910D018AE0289F900111242417350718
:102B900008F0BDCF9F5F9093920202C09F3FD1F794
:102BA000EE2059F00E94DD139FEF1E140CF491E00B
:102BB000899F802D112480939602FF2059F00E9456
:102BC000DD139FEF1F140CF491E0899F802D1124D9
:102BD0008093970230919602332309F498CF209185
:102BE0009702222309F493CF45EB3403C00111244B
:102BF000992359F09093960245EB240390011124F8
:102C0000332339F03093970282CF81E0809396028C
:102C1000F3CF81E0809397027ACF209109018AE077
:102C2000289F900111242417350708F085CF9F5F56
:102C30009093910202C09F3FD1F7002359F00E9468
:102C400027149FEF10160CF491E0899F802D11241A
:102C500080939802112359F00E9427149FEF1116B8
:102C60000CF491E0899F802D11248093990230917A
:102C70009802332309F460CF20919902222309F4AA
:102C80005BCF45EB3403C0011124992359F0909395
:102C9000980245EB240390011124332339F030933B
:102CA00099024ACF81E080939802F3CF81E080932C
:102CB000990242CF86E0E4E9F2E0DF011D928A95B5
:102CC000E9F71092920210929102109293020895E5
:102CD000EF92FF920F931F93CF93DF93EB01E82FB7
:102CE000D11110C0442321F0F0E0EA5FFB4FE491E2
:102CF0006E2F7E2F8E2FDF91CF911F910F91FF901E
:102D0000EF9008950D2F10E0282F30E0442329F094
:102D10002A5F3B4FF901249130E0F6E0CF9FC001DC
:102D20001124EFEFF0E0BF010E94222BAB018C2FAA
:102D300090E0880F991FA5E5A49FB001A59F700D95
:102D40001124861B970B982F990F980FBF01601BBA
:102D5000710B629FD001639FB00D729FB00D112463
:102D60008B2F9D9FB0011124672F7727EF01C61B82
:102D7000D70BBE01629FE001639FD00D729FD00D03
:102D800011247F01E91AF108E09EB001E19E700D67
:102D9000F09E700D1124672F7727E61BF70BE29F3B
:102DA0008001E39F100DF29F100D1124E12F722F6F
:102DB0004230510599F048F44115510569F0413010
:102DC000510581F0EB2F8D2F07C04430510569F07C
:102DD00080F046305105B1F76E2F8DCFE22F7B2F5B
:102DE000812FFACFE22F7D2FF7CFEB2F822F712F7C
:102DF000F3CF7B2F822FED2FEFCF41E00C9468169D
:102E000008950C94FD16CF93DF93762FE901682F78
:102E1000842F0E940117798368838A83DF91CF9181
:102E2000089580914203982F9E7F29F481708260DB
:102E30008093420308958635E8F381708465F8CF66
:102E400088E090E00C94212CCF92DF92EF92FF92D9
:102E50006B017C010E941117B701A60188E090E088
:102E6000FF90EF90DF90CF900C943F2CE2E4F3E0E2
:102E700083E0808311828FEF828383831482608159
:102E80007181828193810C9424178091420380FF89
:102E900002C08695089580E008959091460393308E
:102EA00018F49F5F90934603882351F0609142038A
:102EB0007091430380914403909145030C9424172F
:102EC000089581E00C944D1790914603992319F0D1
:102ED000915090934603882351F060914203709182
:102EE000430380914403909145030C942417089563
:102EF00081E00C94641770E00C94F91F609112014A
:102F00008091420380FF0AC08091110123E0829FDB
:102F1000C0011124895B9C4F0C947B178091130195
:102F20009091140123E0829FF0011124E95BFC4F92
:102F3000891750F71182108212828F5F3396F8CF73
:102F40009091420390FF14C09091130120911401BD
:102F500033E0939FF0011124E95BFC4F921710F0CE
:102F60000C947E178183608342839F5F3396F6CFF4
:102F70000895CF93DF9300D00F92CDB7DEB7909135
:102F8000420390FF0AC09E012F5F3F4F0E9403172C
:102F90004B8169818A810E94A0170F900F900F903A
:102FA000DF91CF910895CF93DF93EC01EC81F0E0B6
:102FB000EF5FFC4F4491E2E4F3E0628181810E9483
:102FC000B9178C818F5F8C83DF91CF910895CF9358
:102FD000DF93EC01E2E4F3E0438162818C810E94A3
:102FE000B9178C818F5F8C83DF91CF9108950F93F8
:102FF0001F93CF93DF9300D00F92CDB7DEB78C0134
:1030000080919A0281110AC09E012F5F3F4F4FEFBE
:103010006FEF0E9403178A8180939A02F8016481FE
:10302000613069F080919A0240E0662361F040E0EF
:10303000623011F440919A0280E060E004C0609137
:103040009A0240E080E00E94A017F801848190E09D
:10305000019663E070E00E94362B84830F900F90FE
:103060000F90DF91CF911F910F910895AF92BF9272
:10307000CF92DF92EF92FF920F931F93CF93DF9344
:1030800000D00F92CDB7DEB7182FF62E042FE22E08
:103090009091420390FF29C0E92FE695AE2FB0E052
:1030A000AC55BE4F8C918093F6029E7F923059F5BD
:1030B0009E012F5F3F4F812F0E9403174B81698133
:1030C0008A810E94A01710934303F0924403009357
:1030D0004503EE2051F060914203709143038091CB
:1030E0004403909145030E9424170F900F900F9076
:1030F000DF91CF911F910F91FF90EF90DF90CF90D4
:10310000BF90AF900895823019F400914503DBCF52
:10311000863019F410914303D6CF8930D9F3893121
:1031200091F6E9518E2F8170D82EE695F0E0EF5F91
:10313000FB4FA590B490C12CBB2460911501C6161D
:1031400018F00E947E17BFCF2C2D30E0A29EC00148
:10315000A39E900DB29E900D112470E00E94222B30
:10316000812FD11013C0860F40911301420F532FAE
:10317000511D9A01220F331F240F351F295B3C4F2D
:10318000402F6F2D0E940317C394D7CF861BECCF1F
:10319000E2E4F3E09181282F4381628188E0890F86
:1031A0000C94361881E00C94C818E2E4F3E09181A5
:1031B000282F4381628188EF890F0C94361881E0B3
:1031C0000C94D518E2E4F3E0628128E0620F08F481
:1031D0006FEF282F438181810C94361881E00C9485
:1031E000E218E2E4F3E0628128E0621B08F460E0A8
:1031F000282F438181810C94361881E00C94F118BA
:10320000E2E4F3E0438128E0420F08F44FEF282F77
:10321000628181810C94361881E00C940019E2E4FB
:10322000F3E0438128E0421B08F440E0282F62814C
:1032300081810C94361881E00C940F1920E00C94D5
:103240003618EF92FF921F93CF93DF93EC0110E0BB
:10325000EE24EA94F12C60911501161770F00E948B
:103260007E179A818C8190FF27C08F5F8C83DF91BE
:10327000CF911F91FF90EF90089520911301422F5D
:10328000410F5527551FCA019A01220F331F280FDE
:10329000391F295B3C4F70E0C7010E94362B962FE7
:1032A0008C814091450360914403199F800D112446
:1032B0000E9403171F5FCFCF8150D8CFBF92CF920C
:1032C000DF92EF92FF920F931F93CF93DF93FC0156
:1032D00082810FEF80FF01E010E080911501181747
:1032E000C0F00E947E1780919C02013009F051C00D
:1032F000811102C080911501815080939C02DF9161
:10330000CF911F910F91FF90EF90DF90CF90BF90E2
:103310000895C0911301C12ED12CCC0DDD2DD11DEE
:10332000CE01880F991FC80FD91FC95BDC4F1982C6
:1033300018821A8234E0E32EF12CB12C80919C0289
:103340008B0D813104F18F70082E000C990BC8167B
:10335000D90691F4809145038E9DA0018F9D500D5B
:10336000112455954795559547959E0160914403C5
:10337000809143030E940317B00EF1E0EF1AF108A9
:10338000E9F61F5FAACF87FFDFCF90911501890F64
:10339000DBCF90E001966091150170E00E94362B22
:1033A000ACCF0F931F93CF93DF9380911301909134
:1033B000140123E0829FF0011124E95BFC4F89177F
:1033C00040F1C0E0D3E060911501C61740F10E94C2
:1033D0007E1720910F0180919B02820F80939B02A8
:1033E00090911001920F90931001191654F4082E29
:1033F000000C990B409115014150550B841795070E
:103400001CF0219520930F01DF91CF911F910F9117
:1034100008951182108212828F5F3396D0CF0C2FC5
:1034200010E070E0C8010E94362B20911301820F3A
:10343000482F50E020919B02022E000C330B021704
:103440001307BCF020911001022E000C330B201743
:1034500031077CF08D9F90011124295B3C4F4091F6
:10346000450360914403809143030E940317CF5F9B
:10347000AACFFA01EE0FFF1FE40FF51FE95BFC4F27
:10348000118210821282F3CF8F929F92AF92BF92DD
:10349000CF92DF92EF92FF920F931F93CF93DF9320
:1034A000EC014C81042F10E09801D8010E947A2B86
:1034B0009B01AC010E94902B4B015C01E0E2F0E02B
:1034C000E01BF10BA5E5B0E0AC019B010E94902B45
:1034D0006B017C019F01DF010E94722B9B01AC01FB
:1034E0000E949B2B9B01AC01280D391D4A1D5B1DC1
:1034F000C701B6010E944A2BF22E822F90E039E2DA
:103500003F1560F143E0249F9001112435952795E4
:10351000122F109500E085E5E82EEF188091150137
:10352000081758F10E947E179C8181E0992319F0B9
:10353000903219F48FEF80930E0180910E01890F64
:103540008C83DF91CF911F910F91FF90EF90DF90CF
:10355000CF90BF90AF909F908F90089525E530E079
:10356000B901681B790B9B01220F331F260F371FF0
:1035700037FFCCCF2F5F3F4FC9CF8E2D01FD8F2D51
:1035800020911301622F600F7727771F9B01220F75
:10359000331F260F371F295B3C4F412F6091440397
:1035A0000E9403170F5FBACF0F931F93CF93DF9340
:1035B000EC0110E000E0909115019017110609F060
:1035C0006CF40E947E178C8190E00196817099279F
:1035D0008C83DF91CF911F910F910895209113015A
:1035E000A801420F511D9A01220F331F240F351FCE
:1035F000295B3C4F4C816091440380914303969535
:103600009017110651F04CF0442349F040914503C6
:103610000E9403170F5F1F4FCECF4423B9F340E042
:10362000F7CF4F925F926F927F928F929F92AF925D
:10363000BF92CF92DF92EF92FF920F931F93CF939F
:10364000DF93FC016280448081E08483E1E0F3E069
:103650007490E0E8F3E0E491812C75E0972EF2E0BD
:10366000CF2EDD24D394AA24AA94B12C55245A94A5
:10367000E7190E2F10E080911501881690F0DF9168
:10368000CF911F910F91FF90EF90DF90CF90BF905F
:10369000AF909F908F907F906F905F904F900C9421
:1036A0007E17E82CF12C82E0861568F09E9CF001D4
:1036B0009F9CF00D1124E356FD4F809143038083BE
:1036C000809144038183411023C09E9CF0019F9C04
:1036D000F00D1124E356FD4F138212822091130145
:1036E000C701820F911D9C01220F331F280F391F24
:1036F000295B3C4F9E9CF0019F9CF00D1124E356EA
:10370000FD4F4281618180810E9403178394B3CF72
:103710009E9CE0019F9CD00D1124C356DD4F8B81F0
:103720008823E9F081508B83859DC00111246C8131
:1037300070E00E94222BFB01FF27EF5FFC4F84917A
:10374000E82FE719E59DC0011124B8010E94222B42
:1037500080914503689FB00111247A83BFCF0E94F6
:10376000EF2B20914503269521582C9DA0012D9DDE
:10377000500D1124452F5527841795070CF0AECF17
:1037800082E0861588F40E94EF2BB5010E94362B4B
:1037900088830E94EF2B209144032695622F70E0CE
:1037A0000E94362B280F29839E9CF0019F9CF00DD0
:1037B0001124E356FD4F128280914503893C58F055
:1037C00088EC9E9CF0019F9CF00D1124E356FD4F68
:1037D0008483838383CF8431A0F784E1F2CFE2E452
:1037E000F3E080818E7F808360817181828193810B
:1037F0000E9424171092F7022FEF80E792E02150E9
:1038000080409040E1F700C000000C947E17E2E495
:10381000F3E080818E7F80831092F7022FEF80E7A4
:1038200092E0215080409040E1F700C000000C94ED
:103830007E171092F7028091F40281110AC081E094
:103840008093F4028091420381708093F3020C9480
:10385000071C089560914203669570E04BE050E0CC
:1038600086E191E00E94FF2B892B19F481E080937F
:10387000F7020E94DF239093EE028093ED020895F9
:103880009091420390FF35C09170811128C09260E1
:1038900090934203662351F0609142037091430379
:1038A00080914403909145030E9424176091420344
:1038B000669570E04BE050E086E191E00E94FF2BBE
:1038C000892BA1F01092F70281E08093F0024091E1
:1038D000450360914403809143030C941E198B327D
:1038E00010F09465D5CF880F982BD2CF0E942A1C58
:1038F000EBCF0895682F90914203969581E0890F50
:103900008B3208F081E00C94401C81E00C947A1C0E
:10391000682F9091420396958FEF890F09F48AE200
:103920000C94401C81E00C94881C61E00C94401CB9
:10393000E2E4F3E080818160808386950C94951C9D
:103940008091420380FD0C94EF1B0C94981C60E066
:103950000C94401C8091F50281112EC00E94870EAC
:10396000811104C00E942C0F0E9436170E9420175C
:103970006093420370934303809344039093450301
:103980006E7F61F40E9436170E94201760934203F5
:103990007093430380934403909345030E9411174F
:1039A0001092F7028091420380FF03C086950E9427
:1039B000A71C81E08093F5020895E2E4F3E08081A2
:1039C0008160808386950C94A71C1092F4028091EC
:1039D000F30281110E94DD1C0C942A1C0F931F938B
:1039E000CF93DF938091F702882309F496C08091EA
:1039F000F602E0914203E695E81BE093EF02823085
:103A000091F5F0E0E350FD4FE491CE2FD0E003EDCF
:103A100017E18091F002882361F01092F0020E9479
:103A2000DF239093EE028093ED021092F202109247
:103A3000F1020E94DF23E091ED02F091EE028E1B75
:103A40009F0B8F3F9F4708F068C0EC0FFD1FF0935E
:103A5000EE02E093ED028DEE92E0F801DF91CF915E
:103A60001F910F910994863049F4F0E0E650FD4F24
:103A7000E491CE2FD0E007EE17E1CBCF893051F49F
:103A8000E695F0E0E950FD4FE491CE2FD0E001E261
:103A900019E1BFCF8F3051F4E695F0E0EC50FD4FC7
:103AA000E491CE2FD0E00EE519E1B3CF853149F492
:103AB000F0E0EF50FD4FE491CE2FD0E001ED19E1A1
:103AC000A8CFC8E2D0E004E41AE1883109F4A1CF1C
:103AD000833239F4EFEEF2E0C591D49107EF17E1AC
:103AE00098CFC4EFD1E004ED1AE1843209F491CF0C
:103AF000C0EDD7E000E017E1853209F08ACF8E2FC4
:103B000063E00E94162BE92FF0E0E451FD4FE491B1
:103B1000CE2FD0E001E11BE17CCFDF91CF911F914F
:103B20000F910895FA01811101C0FB010994CF930F
:103B3000DF93C82FD62F0E9445178C1740F00E94A4
:103B400045178D1720F4DF91CF910C94851C8C2F95
:103B5000DF91CF910C94951C1F93CF93DF93EC01D1
:103B6000FB011281112309F4C2C00E94C40D8272AC
:103B7000CD3CFCE5DF0709F4A0C008F044C0C73C19
:103B8000ECE5DE0709F485C0F0F4C43C9CE5D907F8
:103B900009F475C048F4C33CDC4509F46CC0812FBE
:103BA000DF91CF911F910895C53C9CE5D90709F499
:103BB0006BC04FED58E162ED78E1C63CDC4579F72A
:103BC0000E94921D5AC0CA3CFCE5DF0709F46BC095
:103BD00068F4C83CECE5DE0709F460C04EEE58E13D
:103BE0006DEF78E1C93CDC4559F3D9CFCB3C9CE57E
:103BF000D90709F45DC048E757E161E677E1CC3CBD
:103C0000DC45F1F2CCCFC23DFCE5DF0709F464C02E
:103C100098F4CF3C9CE5D90709F458C008F452C089
:103C2000C03DFCE5DF0709F454C0C13DDC4509F0A7
:103C3000B6CF6EE089E01CC0C53D9CE5D90709F40C
:103C400051C058F4C33DFCE5DF0709F448C0C43D4A
:103C5000DC4509F0A4CF88E136C0C63D9CE5D90714
:103C600009F443C06AE285E2CE35DD4509F097CF1D
:103C70000E94971D02C00E94A01C10E090CF42E954
:103C80005CE165E87CE19CCF45E85CE162E97CE1D0
:103C900097CF42ED58E16FED78E192CF4DEF58E1CB
:103CA0006EEE78E18DCF4BE159E16CE079E188CFA0
:103CB0004CE059E16BE179E183CF41E657E168E7F8
:103CC00077E17ECF81E00E94951CD7CF65E082E04E
:103CD000CFCF68E086E0CCCF64E18FE0C9CF67E169
:103CE00085E1C6CF62E289E1C3CF83E2ECCF11E088
:103CF00056CF86E090E00C94192C682F86E090E077
:103D00000C942D2CE7E7F3E0808184708962808336
:103D10000C947D1E0E94870E811104C00E942C0FFE
:103D20000E94821E0E94791E80937703803320F0C8
:103D3000877088628093770390917703892F8170D1
:103D400090FF04C0892F8695869586950C948A1FCE
:103D500080917703982F969596959695953040F497
:103D60009F5F990F990F990F8770892B8093770325
:103D7000809177038160809377030E947D1E8091FC
:103D800077038695869586950C948A1F8091770394
:103D9000982F987F79F0885080937703887F91E0FF
:103DA00009F490E08091770390FB80F9809377038A
:103DB0000E947D1E809177038695869586950C944A
:103DC0008A1F8091770380FD13C081608093770301
:103DD000813019F489E080937703809177030E9402
:103DE0007D1E809177038695869586950C948A1F13
:103DF00008958091770380FF08C08E7F80937703BA
:103E00000E947D1E80E00C948A1F089580917703A4
:103E100080FD0C94F91E0C94E11E90917703892F7C
:103E20008695869586958F5F8F7197708630D8F4CA
:103E3000880F880F880F892B8093770380917703F1
:103E4000887F91E009F490E08091770390FB80F9FE
:103E5000809377030E947D1E8091770386958695D7
:103E600086950C948A1F90937703E8CF863008F0EC
:103E700085E0909177039770282F220F220F220F51
:103E8000922B90937703987F21E009F420E09091A2
:103E9000770320FB90F9909377030C948A1F0E947C
:103EA000361F809177030C947D1E9C01FB0182815B
:103EB000882349F12E3BFCE53F07C9F040F42C3B39
:103EC000ECE53E0769F02D3B3C4579F00895203C38
:103ED0009CE5390791F070F0213C3C4589F008954C
:103EE00085E00E944F1F80E0089580E0FACF0E9495
:103EF000C61EF9CF0E94A81EF6CF0E94061FF3CF60
:103F00000E940D1FF0CF81E00895269A2E98089503
:103F10002E980895CF92DF92EF92FF92CF93C82F01
:103F2000863040F5811127C0809180008F7D80937D
:103F300080000E94881F2C2F30E0AFEFBFEF0E945F
:103F40007A2B25E030E040E050E00E944A2BC90186
:103F50002C3764E13607A8F469E070E00E94222B58
:103F600070938B0060938A00CF91FF90EF90DF9069
:103F7000CF900895C5E0809180008062809380009A
:103F8000DACF2A50374D4F4F5F4F942F832F722F28
:103F9000662725EF38E241E050E00E944A2B690194
:103FA0007A01CA01B9010E94062B9B01AC01C7012D
:103FB000B6010E94062B672F782F892F992761154C
:103FC000710521E08207910559F66FEF7FEFC8CFA9
:103FD00008950E94851F82E28093800089E180938A
:103FE00081008FEF9FEF90938700809386000C9461
:103FF0008A1E6A9A4EB14B7F5EB15460EFB7F89457
:104000009B01220F331F260F371F280F391F281738
:10401000390741F4EFBF8FE594E00197F1F700C055
:1040200000000895DC016D91CD0178E05EB90000DB
:1040300000C067FF4EB9660F000000C000C000C09E
:104040004EB900C07A9591F7E2CF0F931F93CF93AB
:10405000DF93C42FD22FFC0182818823C9F04093C3
:10406000FA020E94DF239093F9028093F80280E223
:104070008C0F883008F050C0C77081E001C0880FF5
:10408000CA95EAF7DF91CF911F910F910C94B50576
:104090001091FA02141335C08091F8029091F90240
:1040A0000E94F723883C910560F5C0E2CD0F1D17F3
:1040B000B9F080E2810F883040F4177081E001C0D0
:1040C000880F1A95EAF70E94BC05C83048F481E0D1
:1040D0009D2F977001C0880F9A95EAF70E94B50549
:1040E000802F0E94AD05C830B8F4D77081E001C0C0
:1040F000880FDA95EAF7DF91CF911F910F910C9419
:10410000BC0580E28C0F883038F4C77081E001C0B4
:10411000880FCA95EAF7EFCFDF91CF911F910F91EA
:1041200008950F939C01CB01243F4CE5340759F1CE
:10413000A8F4293DFCE53F0701F12A3D4CE5340791
:10414000D1F1283D3C4591F406E221EE41EE68EDC7
:104150007CE50E94252080E00F910895263FFCE534
:104160003F07E9F0B0F0273F3C45F9F0FC018281C0
:10417000882339F11092FA02EFCF07E225EE45EEDF
:1041800069ED7CE5E6CF06E221EE40EE64EF7CE5EA
:10419000E0CF07E225EE44EE65EF7CE5DACF06E2FC
:1041A00021EE42EE66EF7CE5D4CF07E225EE46EE47
:1041B00067EF7CE5CECF08E221E045EE6AED7CE5D5
:1041C000C8CF81E0C9CFCF93DF93EC01FB0182819F
:1041D000882309F419C1C230FCE5DF07C0F1C631FC
:1041E0009CE5D90730F09E012B5F3C452930310515
:1041F00070F50E949A0E9093290380932803C03192
:10420000ECE5DE0709F4CFC008F05BC0C8308CE5F0
:10421000D80709F4B6C088F5C430ECE5DE0709F428
:10422000A8C0C0F4C2308CE5D80709F49CC08091C6
:1042300028038260C330DC4509F498C080912803CC
:10424000909129030E94A80E0E942E0880E0DF9121
:10425000CF910895809128038061C630ECE5DE0798
:1042600009F484C0809128038860C730DC4508F4D5
:104270007DC080912803806279C0CC308CE5D8075E
:1042800009F489C070F4809128038C60CA30ECE591
:10429000DE0709F46BC008F478C0809128038E7F94
:1042A00065C0CE308CE5D80709F479C08091280329
:1042B0008B7FCF30DC4508F459C0809128038F7E76
:1042C00055C0CC3FECE5DE0709F457C030F5C331EB
:1042D0008CE5D80709F46FC078F4C131ECE5DE074E
:1042E00009F465C0C231DC4509F0A8CF0E942E0850
:1042F000809128038F773AC0C5318CE5D80709F43F
:1043000062C008F476C0809129038160CB3FDC4510
:1043100009F094CF8093290391CFC115FDE5DF0704
:1043200009F44DC088F4809129038D7FCE3F9CE530
:10433000D90781F3809129038E7FCF3FDC4550F36D
:10434000809129038360E6CFC230FDE5DF0709F4E1
:1043500059C008F444C080E0C330DD4509F06ECF99
:104360000E942E0F6BCF80912803816080932803D9
:1043700065CF809128038460F9CF80912903826002
:10438000C9CF809128038064F1CF0E942E088091CC
:1043900028038068EBCF809128038D7FE7CF809141
:1043A0002803877FE3CF809128038F7DDFCF809123
:1043B00028038F7BDBCF80912803837FD7CF809129
:1043C00029038C7FA7CF8091280382FB992790F93E
:1043D00021E0922790FB82F990FB83F9C7CF80916F
:1043E0002903982F909591708E7F892B90FB81F9EE
:1043F00091CF0E942E0890912803892F97FB87F96F
:104400008058B4CF81E0ACCF81E021CFCF93DF9350
:10441000EB0186319C4511F50E94C40D9A819923C8
:1044200099F08A7A91E009F490E09093FB0281116F
:1044300009C089E20E947E0D0E94140E80E0DF9187
:10444000CF91089585E3F6CF8091FB02811104C0DE
:1044500089E20E94850DF0CF85E3FBCF81E0EFCFAD
:1044600090930103809300030895E0910003F0917D
:104470000103309721F00190F081E02D099480E054
:104480000895E0910003F0910103309799F0209195
:104490002B01222359F02091280327FF07C0DC01BC
:1044A0002C9111962C93119725E02C930280F38187
:1044B000E02D09940895E0910003F09101033097F5
:1044C00039F022E0DC012C930480F581E02D099481
:1044D00008952091FE023091FF022817390771F0EC
:1044E0009093FF028093FE02E0910003F09101039C
:1044F000309721F00680F781E02D099408952091EE
:10450000FC023091FD022817390771F09093FD02EB
:104510008093FC02E0910003F0910103309721F0B9
:104520000084F185E02D09940895FC013296809174
:104530002B01882321F0809128039EE187FF96E0DC
:1045400080E0915008F4089521912223D1F38F5FE8
:10455000F8CF662301F120912B012223F1F0209165
:10456000280327FF1AC0462F4695469546954E319B
:1045700090F4677021E030E002C0220F331F6A958B
:10458000E2F7840F911DFC01828190E028233923FA
:1045900081E0232B69F480E00895FC0132960896AF
:1045A0002191261721F0E817F907D1F7F4CF81E020
:1045B00008959C01FC0132969FEF80E041914617DF
:1045C00051F09F3F19F4411101C0982F8F5F863041
:1045D000A9F79F3F09F40895290F311D97FD3A95DA
:1045E000F90162830895FC01329608962191261301
:1045F00003C0DF0111971C92E817F907B9F7089576
:10460000E62FE695E695E695EE3168F4E80FF92F8A
:10461000F11D677021E030E001C0220F6A95EAF7D2
:104620008281822B82830895E62FE695E695E695B2
:10463000EE3170F4E80FF92FF11D677021E030E0E2
:1046400001C0220F6A95EAF72095828128232283F0
:10465000089520912B01222329F02091280327FD82
:104660000C9400230C94D92220912B01222329F0B1
:104670002091280327FD0C9414230C94F322FC01B1
:10468000329680912B01882351F08091280387FF77
:1046900006C08EE1DF011D928A95E9F7089586E054
:1046A000F9CF0895089508950C94532380918003C1
:1046B000843009F42EC00E94542380E00E948A1F97
:1046C00080E00E9463040E94191C1092020388E19A
:1046D00090E020E40FB6F894A895809360000FBE98
:1046E0002093600083B7817F846083BF83B781603C
:1046F00083BF7894889583B78E7F83BF0FB6F89475
:10470000A89580916000886180936000109260009D
:104710000FBE08950895CF930E9452230E944D1317
:104720000E948A23C0E08C2F0E947E12892B31F4D4
:10473000CF5FC630C1F780E0CF91089581E0FCCF14
:1047400008950C94A0230E942E080E948A1E0E94A5
:1047500035220E9463040E94E51C0C94A1231F9241
:104760001FB61F9211248F939F93AF93BF93809195
:104770000203811113C08091780390917903A09175
:104780007A03B0917B034196A11DB11D80937803FC
:1047900090937903A0937A03B0937B03BF91AF9179
:1047A0009F918F911F901FBE1F90189582E084BD2E
:1047B00093E095BD9AEF97BD80936E0008952FB753
:1047C000F8948091780390917903A0917A03B09145
:1047D0007B032FBF08952FB7F894609178037091F1
:1047E000790380917A0390917B032FBF08959C01F8
:1047F0004FB7F8948091780390917903A0917A0350
:10480000B0917B034FBF821B930B089578941F9246
:104810001FB61F9211248F939F93AF93BF938091E4
:10482000780390917903A0917A03B0917B0301966C
:10483000A11DB11D8093780390937903A0937A030F
:10484000B0937B03BF91AF919F918F911F901FBE3B
:104850001F90189581E08093E00080E28093D8005B
:104860001092C9008FE19EE40197F1F700C00000AB
:1048700087E090EBDC018093890390938A03A093F7
:104880008B03B0938C0388E19CE00FB6F894A89555
:10489000809360000FBE90936000FFCF9093D10192
:1048A0008093D0010895809126030895909180030C
:1048B000943031F5809303037093050360930403F0
:1048C00082E08093E9008FEF9091E800815095FDA0
:1048D00006C095ED9A95F1F700008111F5CF809112
:1048E000E80085FF0DC050E040E063E070E083E049
:1048F00093E00E9475268091E8008E778093E8000F
:104900000895BC0184E00C945624BC0183E00C940F
:1049100056249C0182E08093E9009FEF8091E8009B
:10492000915085FD06C085ED8A95F1F70000911143
:10493000F5CF8091E80085FF0CC050E040E066E0D4
:1049400070E0C9010E9475268091E8008E778093FF
:10495000E8000895CF93DF93EC0180912B01882329
:10496000B1F18091280387FF32C060E282E080933A
:10497000E9008FEF9091E800815095FD06C095ED1C
:104980009A95F1F700008111F5CF8091E80085FF3D
:104990001BC080912B0170E050E040E0811104C009
:1049A00050E040E068E070E0CE010E947526809102
:1049B000E8008E778093E80080E2FE01A6E0B3E095
:1049C00001900D928A95E1F7DF91CF91089568E00B
:1049D00081E0CDCF80917F03811109C00E9405281D
:1049E0000E9462288091E20084608093E200089532
:1049F00010927F03089508950895089542E061ECB0
:104A000081E00E94812742E261EC82E00C948127E0
:104A100080918203833009F45FC030F48130C1F1AA
:104A2000823009F49BC008958A3009F487C08B3026
:104A300009F46DC0893009F04EC080918103813244
:104A400009F049C08091850390918603029708F090
:104A500042C08091E800877F8093E8008091E80061
:104A600082FF35C09091F3008091F200029729F403
:104A70008091F1008B7F813021F48091F10080934F
:104A800026038091E8008B778093E8000C94B5278B
:104A900080918103813AF9F48091E800877F8093C7
:104AA000E8008091850390918603892B61F460E290
:104AB00086E093E070E00E94C4268091E8008B7746
:104AC0008093E800089560E090E080E0F3CF80916B
:104AD00080038111C3CF089580918103813AD9F772
:104AE0008091850390918603892BA9F78091E80036
:104AF000877F8093E8008091E80080FFFCCF809161
:104B00002B018093F1008091E8008E77BDCF8091DA
:104B10008103813201F78091850390918603892B6F
:104B2000D1F68091E800877F8093E8000E94B52746
:104B30008091830380932B010C942E088091810334
:104B4000813249F68091E800877F8093E8000E94D7
:104B5000B527809184038093270308958091810372
:104B6000813A09F0B8CF8091E800877F8093E80010
:104B70008091E80080FFFCCF80912703C2CF84B7EB
:104B8000877F84BF0FB6F894A895809160008861F4
:104B900080936000109260000FBE80E890E00FB636
:104BA000F89480936100909361000FBE0C94540FB1
:104BB0000E9405280E946228E2EEF0E08081846075
:104BC000808378940E94EB2A0E94680F81E291E032
:104BD0000C94302280918003853031F480918003E1
:104BE000853021F00E94A3230C94720F0E9456235B
:104BF00080917E03882391F30E948B23882371F395
:104C00000E945F260E942E08E9CF0C940726292FC8
:104C100033272330310519F168F42130310509F4C7
:104C200044C02230310509F445C090E080E030E016
:104C300020E025C02132310549F122323105A9F7A2
:104C400080E490E023E336E061157105C1F086EB66
:104C500090E02DE735E06130710589F0E6CF9927C6
:104C60008130910581F0009729F00297F1F6E6E096
:104C7000F5E002C0ECE2F5E0849190E09F01FA01DA
:104C8000318320830895E4E1F5E0F6CF89E090E0F8
:104C900022E435E06115710591F389E090E02BE5A0
:104CA00035E06130710559F3C0CF82E190E02BE629
:104CB00035E0E5CF8BE390E020E335E0E0CF80E125
:104CC00089BD82E189BD09B400FEFDCF8091D80085
:104CD0008F7D8093D8008091E00082608093E00017
:104CE0008091E00081FDFCCF0895AF92BF92CF92FA
:104CF000DF92FF920F931F93CF93DF936C01EB0131
:104D00008A010E94D427F82E811123C001151105B4
:104D100039F0F80180819181C81BD90BC80ED91ECA
:104D2000B12CA12C2097A9F08091E80085FD22C02C
:104D30008091E8008E778093E80001151105A1F0BD
:104D4000F80180819181A80EB91EB182A08285E010
:104D5000F82E8F2DDF91CF911F910F91FF90DF9053
:104D6000CF90BF90AF9008950E94D4278823D1F2AE
:104D7000F82EEFCFF60181916F018093F10021971A
:104D8000FFEFAF1ABF0ACECFFC018091870390914D
:104D9000880386179707A0F06115710529F4909193
:104DA000E8009E779093E80090E06115710551F45A
:104DB000911108C08091E80082FF34C080E008951E
:104DC000BC01F2CF809180038823C1F18530C1F10D
:104DD0008091E80083FD30C08091E80082FDEACF39
:104DE0008091E80080FFE1CF8091F3002091F200F4
:104DF000382F6115710519F02830310558F091E010
:104E00002830310509F090E02091E8002E772093BA
:104E1000E800CBCF81918093F100615071092F5F41
:104E20003F4FE7CF80918003882341F0853041F0E8
:104E30008091E80083FFBECF81E0089582E008956D
:104E400083E00895FC018091870390918803861781
:104E50009707A0F06115710529F48091E8008E771D
:104E60008093E80090E06115710551F4911108C03C
:104E70008091E80082FF35C080E00895BC01F2CF48
:104E8000809180038823C9F18530C9F18091E800C1
:104E900083FD31C08091E80082FDEACF8091E80077
:104EA00080FFE1CF8091F3002091F200382F61154F
:104EB000710519F02830310558F091E0283031059E
:104EC00009F090E08091E8008E778093E800CBCFE6
:104ED00084918093F1003196615071092F5F3F4FAB
:104EE000E6CF80918003882341F0853041F08091A6
:104EF000E80083FFBDCF81E0089582E0089583E05C
:104F00000895982F973028F08F708093E90081E002
:104F100008959093E900242F762F50E0981731F0F0
:104F20007091EC002091ED005091F00021FD02C045
:104F30009F5FE8CF3091EB003E7F3093EB003091E4
:104F4000ED003D7F3093ED003091EB003160309308
:104F5000EB007093EC002093ED005093F000209153
:104F6000EE0027FDE5CF80E008958091810387FF63
:104F700013C08091E80082FF06C08091E8008B7723
:104F80008093E80004C0809180038111F2CF0895DE
:104F9000809180038823D9F38091E80080FFF8CFC7
:104FA0008091E8008E77ECCF2091E4003091E5000D
:104FB00095E6A9012091EC00822F817020FF06C0A8
:104FC0008091E80080FF06C080E008952091E8000D
:104FD00022FD1AC080918003882389F0853089F0F2
:104FE0008091EB0085FD0FC02091E4003091E50039
:104FF00042175307F9F29150E1F684E0089582E0F8
:10500000089583E0089581E008950E9473280E9426
:105010007B28E0EEF0E0808181608083E8EDF0E0C5
:1050200080818F77808319BCA7EDB0E08C918E7F53
:105030008C9380818F7E808310927F0308950F93DD
:105040001F93CF93DF930E9473280E947B28C8EDA3
:10505000D0E088818F778883888180688883888181
:105060008F7D888319BC1092800310927C0310926C
:105070007E0310927D0300EE10E0F80180818B7FAB
:10508000808388818160888342E060E080E00E94C4
:105090008127E1EEF0E080818E7F8083E2EEF0E018
:1050A000808181608083808188608083F801808135
:1050B0008E7F8083888180618883DF91CF911F916B
:1050C0000F910895E8EDF0E080818F7E8083E7ED19
:1050D000F0E080818160808384E082BF81E0809302
:1050E0007F030C941F28E8EDF0E080818E7F8083A1
:1050F0001092E20008951092DA001092E1000895F3
:105100001F920F920FB60F9211242F933F934F933C
:105110005F936F937F938F939F93AF93BF93EF931F
:10512000FF938091E10082FF0BC08091E20082FF3B
:1051300007C08091E1008B7F8093E1000E94EA2A02
:105140008091DA0080FF19C08091D80080FF15C0DF
:105150008091DA008E7F8093DA008091D90080FF01
:1051600096C080E189BD82E189BD09B400FEFDCF12
:1051700081E0809380030E94EA248091E10080FF17
:1051800019C08091E20080FF15C08091E2008E7FFF
:105190008093E2008091E20080618093E200809140
:1051A000D80080628093D80019BC85E0809380038A
:1051B0000E94FC248091E10084FF2BC08091E200DA
:1051C00084FF27C080E189BD82E189BD89B5982F20
:1051D000917080FFFBCF8091D8008F7D8093D800A5
:1051E0008091E1008F7E8093E1008091E2008F7ECC
:1051F0008093E2008091E20081608093E2008091E0
:105200007C03882309F449C084E0809380030E94D2
:10521000FD248091E10083FF29C08091E20083FF9B
:1052200025C08091E100877F8093E10082E0809338
:10523000800310927C038091E1008E7F8093E100D7
:105240008091E2008E7F8093E2008091E200806195
:105250008093E20042E060E080E00E94812780913C
:10526000F00088608093F0000E94FB24FF91EF9192
:10527000BF91AF919F918F917F916F915F914F916E
:105280003F912F910F900FBE0F901F90189519BC52
:10529000109280030E94F82470CF8091E30087FD74
:1052A00093E090938003B3CF1F920F920FB60F92AB
:1052B00011242F933F934F935F936F937F938F931B
:1052C0009F93AF93BF93CF93DF93EF93FF93D091CF
:1052D000E900DF708091EC00C82FC17080FDC0E84C
:1052E0001092E9008091F000877F8093F00078941D
:1052F0000E9498291092E9008091F00088608093C4
:10530000F000CD2BCF70C093E900FF91EF91DF91BA
:10531000CF91BF91AF919F918F917F916F915F914D
:105320004F913F912F910F900FBE0F901F901895A6
:105330001F93CF93DF93CDB7DEB7AA970FB6F8943C
:10534000DEBF0FBECDBF81E893E02091F100FC01EC
:105350002193CF01F3E089389F07B9F70E94082510
:105360008091E80083FF1EC18091810390918203A8
:105370009A3008F017C1E92FF0E0E056F34D0C9495
:105380006C2B803899F0823809F00CC1809185032C
:105390008F70873008F006C18093E9008091EB00A0
:1053A00085FB882780F91092E90006C080917D0373
:1053B00090917E03911182609091E800977F909385
:1053C000E8008093F1001092F1008091E8008E7760
:1053D000E5C0882309F4D3C0823009F0E3C080918E
:1053E00083038111D6C0809185038F702FEF280F22
:1053F000263008F0D7C08093E9002091EB0020FF11
:10540000C8C0933031F48091EB0080628093EB0050
:10541000C0C09091EB0090619093EB0021E030E0F0
:1054200001C0220F8A95EAF72093EA001092EA0061
:105430008091EB008860EACF8111B4C010918303A2
:105440001F778091E3008078812B8093E300809127
:10545000E800877F8093E8000E94B5278091E800EC
:1054600080FFFCCF8091E30080688093E30082E0BE
:10547000111183E08093800395C08058823008F03A
:1054800091C080918303909184038C3D23E0920727
:10549000A1F583E08A838AE289834FB7F894DE011D
:1054A000139620E03EE051E2E32FF0E050935700E6
:1054B000E49120FF03C0E295EF703F5FEF708E2F05
:1054C00090E0EA30C0F0C7968D939D932F5F243112
:1054D00059F74FBF8091E800877F8093E8006AE228
:1054E00070E0CE0101960E94C4268091E8008B777F
:1054F0008093E80057C0C096E7CF60918503709114
:105500008603AE014F5F5F4F0E940526BC01892BC9
:1055100009F448C09091E800977F9093E800898152
:105520009A810E942227E1CF8038E1F58091E8003E
:10553000877F8093E80080917C038093F10045CFC2
:10554000811130C090918303923060F58091E80022
:10555000877F8093E80090937C030E94B527809119
:105560007C03882311F084E005C08091E30087FD6F
:10557000FACF81E0809380030E94FE2413C08091C3
:105580008303813079F481E0933009F080E08093E7
:105590007E031092E9008091E800877F8093E80005
:1055A0000E94B5278091E80083FF0AC08091E8003F
:1055B000877F8093E8008091EB0080628093EB000E
:1055C000AA960FB6F894DEBF0FBECDBFDF91CF9184
:1055D0001F9108950895CF93809180038823A1F0AF
:1055E000C091E900CF709091EC00892F817090FDFF
:1055F00080E8C82B1092E9008091E80083FD0E94AA
:105600009829CF70C093E900CF910895DB018F9363
:105610009F930E94902BBF91AF91A29F800D911DEF
:10562000A39F900DB29F900D11240895991B79E0CE
:1056300004C0991F961708F0961B881F7A95C9F722
:1056400080950895AA1BBB1B51E107C0AA1FBB1F71
:10565000A617B70710F0A61BB70B881F991F5A95FE
:10566000A9F780959095BC01CD01089597FB072E71
:1056700016F4009407D077FD09D00E94222B07FC76
:1056800005D03EF4909581959F4F08957095619552
:105690007F4F0895A1E21A2EAA1BBB1BFD010DC06E
:1056A000AA1FBB1FEE1FFF1FA217B307E407F507D2
:1056B00020F0A21BB30BE40BF50B661F771F881FAE
:1056C000991F1A9469F760957095809590959B0144
:1056D000AC01BD01CF010895EE0FFF1F0590F491BD
:1056E000E02D09940E947A2B332312F48A1B9B0B22
:1056F0000C948B2BA29FB001B39FC001A39F700D90
:10570000811D1124911DB29F700D811D1124911DC9
:1057100008950E947A2BB7FF0895821B930B08957A
:105720000E947A2BA59F900DB49F900DA49F800D91
:10573000911D11240895B7FF0C94902B0E94902B7B
:10574000821B930B08958F929F92AF92BF92CF923C
:10575000DF92EF92FF92CF93DF93EC016881798122
:105760008A819B81611571058105910521F464E2AF
:1057700079ED8BE597E02DE133EF41E050E00E94B9
:10578000612C49015A019B01AC01A7EAB1E40E94D6
:10579000902B6B017C01ACEEB4EFA50194010E944B
:1057A0009E2BDC01CB018C0D9D1DAE1DBF1DB7FFD7
:1057B00003C00197A109B04888839983AA83BB835A
:1057C0009F77DF91CF91FF90EF90DF90CF90BF90C8
:1057D000AF909F908F9008950E94A32B089580E032
:1057E00091E00E94A32B0895B0E0A0E08093000117
:1057F00090930101A0930201B09303010895FC016D
:105800004150504030F001900616D1F73197CF014A
:105810000895882799270895FB01DC0104C08D9124
:105820000190801921F441505040C8F7881B990B12
:105830000895F999FECF92BD81BDF89A992780B558
:105840000895A6E1B0E044E050E00C94532CA8E1A8
:10585000B0E042E050E00C94532C262FF999FECF93
:1058600092BD81BDF89A019700B4021639F01FBAB3
:1058700020BD0FB6F894FA9AF99A0FBE08950396D0
:10588000272F0E942E2C0E942D2C252F0E942E2C7B
:10589000242F0C942E2C0196272F0E942E2C0C9432
:1058A0002D2CDC01CB01FC01F999FECF06C0F2BD25
:1058B000E1BDF89A319600B40D9241505040B8F7CE
:1058C0000895052E97FB1EF400940E94782C57FD36
:1058D00007D00E944A2B07FC03D04EF40C94782C7E
:1058E00050954095309521953F4F4F4F5F4F08950C
:1058F00090958095709561957F4F8F4F9F4F08953C
:10590000F894FFCFF705F7054F064F06A106BD0631
:1059100024062406C806540763076307BF07240646
:105920002406C8073D083D084608460848084608BA
:10593000460846083D083D084D08460846084D08FB
:10594000C129E929D22AE929D22A1C2A3D2AD22AA8
:04595000942AA02ACB
:105954000100000051022808641E140A321E0101CD
:1059640002001000101001191A1B1C1D1E1F2021FB
:10597400225324AA2489248524812401E200E900F5
:10598400EA00B500B600B700CD008301CC008A015F
:1059940092019401210223022402250226022702F5
:1059A4002A02B300B4006F007000818283E200E930
:1059B40000EA00B500B600B700CD008301CC008A30
:1059C40001920194012102230224022502260227C6
:1059D400022A02B300B4006F007000818283F0F1E8
:1059E400C66766F59431303534979633F4F6909162
:1059F400929395370001020202020606060909097C
:105A04000909090F0F0F0F0F0F151515181919197B
:105A140019191919191919232425252525252500AE
:00000001FF
